:100000001B0110001311F10113040000EF00400761
:1000100067000000130101FD233481021304010372
:100020009307050013870600232EF4FC9387050031
:10003000232CF4FC93070600232AF4FC9307070003
:100040002328F4FC0327C4FD832784FDBB07F700A6
:100050001B870700832644FD832704FDBB87F6002A
:100060009B870700BB07F7402326F4FE8327C4FEC7
:100070001385070003348102130101036780000028
:10008000130101FE233C11002338810013040102F7
:10009000930770012326F4FE9307800F2324F4FEB8
:1000A000930790012322F4FE9307F0002320F4FE2F
:1000B000832604FE032644FE032784FE8327C4FE12
:1000C0009305070013850700EFF0DFF493070500A1
:1000D000138707009307700EB307F740B337F0009C
:1000E00093F7F70F9B870700138507008330810183
:0C00F000033401011301010267800000CD
:00000001FF
