:100000001B0110001311F10113040000EF00401355
:1000100067000000130101FE233C8100130401026C
:10002000930705002326F4FE8327C4FE9BD7F70120
:100030001B8707008327C4FE9BD767009B870700A9
:10004000B347F7001B8707008327C4FE9BD74700F1
:100050009B870700B347F7001B8707008327C4FE71
:100060009BD727009B870700B347F7001B87070034
:100070008327C4FE9BD717009B870700B347F70071
:100080001B8707008327C4FEB3C7E7009B870700D1
:100090009B97F7011B8707008327C4FE9BD7170098
:1000A0009B870700B367F7002326F4FE8327C4FE6F
:1000B00013850700033481011301010267800000EA
:1000C000130101FD233411022330810213040103C3
:1000D0009307050013870500232EF4FC9307070000
:1000E000232CF4FC8327C4FD2324F4FE232604FEE2
:1000F0006F004002832784FE13850700EFF09FF115
:10010000930705002324F4FE8327C4FE9B87170072
:100110002326F4FE0327C4FE832784FD1B07070064
:100120009B870700E368F7FC832784FE138507009D
:100130008330810203340102130101036780000050
:10014000130101FE233C1100233881001304010236
:10015000B75734129B8787672326F4FE9307400620
:100160002324F4FE8327C4FE032784FE930507009F
:1001700013850700EFF0DFF4930705009B87070066
:1001800013870700B7D71A0F938797A1B307F740D4
:10019000B337F00093F7F70F9B870700138507002D
:1001A00083308101033401011301010267800000E3
:00000001FF
