:100000001B0110001311F10113040000EF008036F2
:1000100067000000130101FE233C8100130401026C
:10002000930705002326F4FE8327C4FE9BD7F70120
:100030001B8707008327C4FE9BD767009B870700A9
:10004000B347F7001B8707008327C4FE9BD74700F1
:100050009B870700B347F7001B8707008327C4FE71
:100060009BD727009B870700B347F7001B87070034
:100070008327C4FE9BD717009B870700B347F70071
:100080001B8707008327C4FEB3C7E7009B870700D1
:100090009B97F7011B8707008327C4FE9BD7170098
:1000A0009B870700B367F7002326F4FE8327C4FE6F
:1000B00013850700033481011301010267800000EA
:1000C000130101FD233411022330810213040103C3
:1000D000233CA4FC93870500232AF4FCB757341271
:1000E0009B8787672324F4FE232604FE6F00C0034A
:1000F000832784FE13850700EFF0DFF193070500E7
:100100002324F4FE8367C4FE93972700033784FDFE
:10011000B307F700032784FE23A0E7008327C4FE6C
:100120009B8717002326F4FE0327C4FE832744FD84
:100130001B0707009B870700E36CF7FA130000001A
:100140008330810203340102130101036780000040
:10015000130101FD2334810213040103233CA4FC99
:1001600093870500232AF4FC836744FD93972700B7
:10017000033784FDB307F70083A707002326F4FEA7
:10018000832744FD9B8717009B87070093970702EF
:1001900093D7070293972700033784FD3307F700AF
:1001A000836744FD93972700833684FDB387F60069
:1001B0000327070023A0E700832744FD9B87170040
:1001C0009B8707009397070293D70702939727000F
:1001D000033784FDB307F7000327C4FE23A0E7001D
:1001E0001300000003348102130101036780000043
:1001F000130101FD23341102233081021304010392
:10020000233CA4FC93870500232AF4FC232604FE48
:100210006F008009232404FE6F000006836784FEBC
:1002200093972700033784FDB307F70083A60700E1
:10023000832784FE9B8717009B87070093970702FD
:1002400093D7070293972700033784FDB307F7007E
:1002500083A707001387060063FAE700832784FE5D
:1002600093850700033584FDEFF09FEE832784FE1E
:100270009B8717002324F4FE032744FD8327C4FE35
:10028000BB07F7409B8707009B87F7FF1B8707008B
:10029000832784FE9B870700E3E2E7F88327C4FEF9
:1002A0009B8717002326F4FE832744FD9B87F7FFD7
:1002B0001B8707008327C4FE9B870700E3ECE7F456
:1002C0001300000083308102033401021301010393
:1002D00067800000130101FD233481021304010330
:1002E000233CA4FC93870500232AF4FC232604FE68
:1002F0006F0080058367C4FE93972700033784FD52
:10030000B307F70083A607008327C4FE9B87170067
:100310009B8707009397070293D7070293972700BD
:10032000033784FDB307F70083A707001387060090
:1003300063F6E700930700006F00C0028327C4FE46
:100340009B8717002326F4FE832744FD9B87F7FF36
:100350001B8707008327C4FE9B870700E3ECE7F8B1
:100360009307100013850700033481021301010372
:1003700067800000130101812334117E2330817EC8
:100380001304017F13010184B7F7FFFF938707066A
:10039000130704FFB307F7009305803E138507009A
:1003A000EFF01FD2B7F7FFFF93870706130704FF8D
:1003B000B307F7009305803E13850700EFF05FE376
:1003C000B7F7FFFF93870706130704FFB307F7008C
:1003D0009305803E13850700EFF0DFEF93070500DC
:1003E0009B87070093B7170093F7F70F9B870700CA
:1003F000138507001301017C8330817E0334017E65
:080400001301017F6780000079
:00000001FF
