:100000001B0110001311F10113040000EF00800A1E
:1000100067000000130101FD233411022330810227
:10002000233C91001304010393070500232EF4FCE5
:100030008327C4FD9B870700639607009307000092
:100040006F00C0058327C4FD1B87070093071000BE
:100050006316F700930710006F0040048327C4FD68
:100060009B87F7FF9B87070013850700EFF09FFA38
:10007000930705009B8407008327C4FD9B87E7FF48
:100080009B87070013850700EFF0DFF89307050053
:100090009B870700BB87F4009B8707001385070039
:1000A000833081020334010283348101130101038F
:1000B00067800000130101FE233C110023388100FA
:1000C00013040102930790012326F4FE8327C4FE44
:1000D00013850700EFF01FF4930705009B870700C7
:1000E00013870700B727010093871751B307F7401D
:1000F000B337F00093F7F70F9B87070013850700CE
:100100008330810103340101130101026780000083
:00000001FF
