:100000001B0110001311F10113040000EF00004365
:1000100067000000130101FE233C8100130401026C
:10002000930705002326F4FE8327C4FE9BD7F70120
:100030001B8707008327C4FE9BD767009B870700A9
:10004000B347F7001B8707008327C4FE9BD74700F1
:100050009B870700B347F7001B8707008327C4FE71
:100060009BD727009B870700B347F7001B87070034
:100070008327C4FE9BD717009B870700B347F70071
:100080001B8707008327C4FEB3C7E7009B870700D1
:100090009B97F7011B8707008327C4FE9BD7170098
:1000A0009B870700B367F7002326F4FE8327C4FE6F
:1000B00013850700033481011301010267800000EA
:1000C000130101FD233411022330810213040103C3
:1000D000233CA4FC93870500232AF4FCB757341271
:1000E0009B8787672324F4FE232604FE6F00C0034A
:1000F000832784FE13850700EFF0DFF193070500E7
:100100002324F4FE8367C4FE93972700033784FDFE
:10011000B307F700032784FE23A0E7008327C4FE6C
:100120009B8717002326F4FE0327C4FE832744FD84
:100130001B0707009B870700E36CF7FA130000001A
:100140008330810203340102130101036780000040
:10015000130101FD2334810213040103233CA4FC99
:100160009387050013070600232AF4FC9307070072
:100170002328F4FC836744FD93972700033784FD0D
:10018000B307F70083A707002322F4FE832744FD6B
:100190002326F4FE832704FD9B8717002324F4FE07
:1001A0008327C4FE9B8717002326F4FE8367C4FEC3
:1001B00093972700033784FDB307F70003A70700D1
:1001C000832744FE9B87070063ECE7000327C4FEF8
:1001D000832704FD1B0707009B870700E3F2E7FC6A
:1001E000832784FE9B87F7FF2324F4FE836784FE26
:1001F00093972700033784FDB307F70003A7070091
:10020000832744FE9B870700E3ECE7FC0327C4FE3B
:10021000832784FE1B0707009B8707006370F70690
:100220008367C4FE93972700033784FDB307F70065
:1002300083A707002320F4FE836784FE939727009B
:10024000033784FD3307F7008367C4FE93972700C5
:10025000833684FDB387F6000327070023A0E70059
:10026000836784FE93972700033784FDB307F70065
:10027000032704FE23A0E7006FF09FF213000000A5
:10028000836744FD93972700033784FDB307F70086
:1002900083A707002320F4FE836784FE939727003B
:1002A000033784FD3307F700836744FD93972700E6
:1002B000833684FDB387F6000327070023A0E700F9
:1002C000836784FE93972700033784FDB307F70005
:1002D000032704FE23A0E700832784FE138507007D
:1002E000033481021301010367800000130101FD43
:1002F000233411022330810213040103233CA4FCA4
:100300009387050013070600232AF4FC93070700D0
:100310002328F4FC032744FD832704FD1B07070063
:100320009B8707006372F706032704FD832744FDBC
:100330001306070093850700033584FDEFF05FE1A6
:10034000930705002326F4FE8327C4FE9B87F7FF4F
:100350001B870700832744FD1306070093850700CA
:10036000033584FDEFF09FF88327C4FE9B871700B9
:100370009B870700032704FD1306070093850700EA
:10038000033584FDEFF09FF61300000083308102F7
:10039000033401021301010367800000130101FD12
:1003A0002334810213040103233CA4FC938705003A
:1003B000232AF4FC232604FE6F0080058367C4FE15
:1003C00093972700033784FDB307F70083A6070040
:1003D0008327C4FE9B8717009B870700939707021C
:1003E00093D7070293972700033784FDB307F700DD
:1003F00083A707001387060063F6E7009307000052
:100400006F00C0028327C4FE9B8717002326F4FEDB
:10041000832744FD9B87F7FF1B8707008327C4FEC4
:100420009B870700E3ECE7F89307100013850700AC
:10043000033481021301010367800000130101816D
:100440002334117E2330817E1304017F37F3F9FFBB
:10045000130303D633016100B7E7F9FF9387075809
:10046000130704FF3307F700B78701009385076A76
:1004700013050700EFF0DFC4B7E7F9FF93870758CC
:10048000130704FF3307F700B78701001386F769E6
:100490009305000013050700EFF05FE5B7E7F9FFEC
:1004A00093870758130704FF3307F700B787010046
:1004B0009385076A13050700EFF05FEE93070500C9
:1004C0009B87070093B7170093F7F70F9B870700E9
:1004D00013850700371306001303032A3301610055
:1004E0008330817E0334017E1301017F6780000029
:00000001FF
